:10145C00E58E54CF4FF58EE4F5C8C374FF950AF5AD
:10146C000A74FF9509F5098509CD850ACC8509CB48
:10147C00850ACA300806D2ADC2CF8004C2ADC2CF35
:05148C00D2CAC2CF220C
:1016C500C2B78F8630B1FDE58420E7FBAF86C2B790
:0116D50022F2
:10168B0090021CE07007D2A3D2A2C2A022D295D2A4
:04169B0094C286224D
:10141D007E08EF20E70E90021CE07004C2A280103F
:10142D00C294800C90021CE07004D2A28002D2946F
:10143D00EF25E0FF90021CE0FD7004D2A08002D2E7
:0E144D0086ED7004C2A08002C286DEC67F005B
:01145B00226E
:04170F0041021D0076
:100C760053D9BFE5EFB44011903FFEE49390021DB7
:100C8600F090021C7401F0800E90FFFEE493900237
:100C96001DF0E490021CF090021CE0FF12100B12F3
:100CA60011DD90021DE02430B40A004003020D4419
:100CB600900CC475F003A4C58325F0C58373020C9C
:100CC600E2020CE4020CEC020CF4020CFC020D1025
:100CD600020D24020D2C020D34020D3C80609002A0
:100CE6001E7401F0805D90021E7402F08055900221
:100CF6001E7403F0804D90021CE090021EB40105A4
:100D06007406F0803E7404F0803990021CE0900274
:100D16001EB401057407F0802A7405F08025900240
:100D26001E7408F0801D90021E7409F08015900252
:100D36001E740AF0800D90021E740BF08005E4907C
:100D4600021EF012169F12161112168B78197607CC
:100D56000876FA78097C007D007B007A0079197E96
:100D6600007F02120B95D208E4FF12145CC20AE45B
:100D7600FF1212D3121523D2AF12002E300AFAC276
:030D86000A80F6EA
:03002B0002171C9D
:0B171C0075CDF875CC05C2CFD20A32A3
:0300000002114E9C
:0F114E0075D900787FE4F6D8FD758121021198DC
:1016460055445030303330312E306530312E3072C3
:081656004C424C30302E3030C4
:10100B0075B64075B28FE4F5A9EF704575A45075B0
:10101B00A5F575A64F75D4CF75D5F875D6FCC2AFAF
:10102B0075A70F75A47075A5F775A64FF5A775E194
:10103B000175E24075E340E5A4F4F580E5A5F4F510
:10104B0090E5A6F4F5A0538EF4438E08758D96802B
:10105B003AEF6401704275A4D075A5FD75D4CF75B8
:10106B00D5F8C2AF75A70F75A4D075A5FDF5A775FB
:10107B00E10175E24075E340E5A4F4F580E5A5F4E4
:10108B00F590538EF4438E08758D9053890F4389D9
:10109B0020D28ED29975981075844075B0017585E4
:0610AB0001D295D297224C
:10169F0090021EE024FA500624FA50058005D294D9
:0416AF0022D293228E
:04165E00D202C2AF43
:1016620090021EE024FA500624FA50058005C29426
:0416720022C29322DB
:1016110090021EE024FC500B600C14600924F95068
:0C162100088008C2A622C29622C29622AF
:0D16E50012165E1216C512169FD2AFC20279
:0116F20022D5
:0215D7008D0A7B
:1015D90012165E1216C58F0BAF0A1216C58F0C12A2
:0A15E900169FD2AFC202AE0BAF0C8A
:0115F30022D5
:081392008D0B8B0C8A0D890EF6
:10139A0012165E1216C5E4F512E512C3950B502B10
:1013AA00AB0C050EE50EAA0D7002050D14F9120B11
:1013BA00BBFF1216C5AB0F0511E511AA1070020585
:1013CA001014F9EF120C01051280CE12169FD2AF3B
:0213DA00C2024D
:0113DC0022EE
:0E16F300EF24FE6006047005C29522C2972205
:0E170100EF24FE6006047005D29522D29722D6
:10167600EF24FE600904700AA28292088004A28305
:041686009208A2081C
:01168A00223D
:05171300420103000784
:10152300D299D2ACC205C203C206E4900002F0F520
:1015330015F516900180F0900201F0900000F0C2C2
:0815430007C202900105F0222D
:10002E00900105E014603D146046147003020575DE
:10003E002403600302057A30050DC205E490000129
:10004E00F090010504F02230060BC20690000174F8
:10005E0001F002057620030302057AC20390010522
:10006E007402F022900001E0FF12162DE4020576D4
:10007E00900004E0FF543CFE1313543F6003020152
:10008E00C7EF54C0F50924C070030201A224C0704A
:10009E00030201A224C070030201A224C060030265
:1000AE0001A61215F4900005E0700302018024FCF5
:1000BE00700302015E1470030201622404600302E5
:1000CE0001849001817404F078827C017D017BFFB4
:1000DE007A1679467E007F06120B9578887C017D14
:1000EE00017BFF7A16794C7E007F05120B95788D79
:1000FE007C017D017BFF7A1679567E007F03120B01
:10010E009578907C017D017BFF7A1679517E007F78
:10011E0005120B9578957C017D017BFF7A16795936
:10012E007E007F05120B95789A7C017D017B017A0A
:10013E000179037E007F02120B95900004E0543F7C
:10014E0044C0F5087A017B81C208FD7F1D02056B54
:10015E00E4020576E4900181F0A304F0900004E03F
:10016E00543F44C0F5087A017B81C208FD7F04022A
:10017E00056BE4020576E4900181F0A304F0900093
:10018E0004E0543F44C0F5087A017B81C208FD7F2C
:10019E000402056BE40205761215F4E4900181F079
:1001AE00A304F0900004E0543F44C0F5087A017BAC
:1001BE0081C208FD7F0402056B900004E0FF543CF1
:1001CE00FE1313543F6407600302057AEF54C0F523
:1001DE000924C0700302054424C07003020547249D
:1001EE00C0700302054A24C0600302054D1215F4C7
:1001FE00900005E024E8700302045624FE7003020A
:10020E0004DA240A6003020527900007E060030267
:10021E00043730073EE4900181F0A37405F090009E
:10022E0003E024FBFFE434FFFE78837C017D017B39
:10023E00017A017906120B95900004E0540344DC18
:10024E00F508900003E014FF7A017B81C208AD0827
:10025E0002056B30023EE4900181F0A37403F0902E
:10026E000003E024FBFFE434FFFE78837C017D0174
:10027E007B017A017906120B95900004E054034439
:10028E00DCF508900003E014FF7A017B81C208AD13
:10029E000802056B900006E0543F705C900008E089
:1002AE00FF900003E024FAFD750F01751001751122
:1002BE00067B017A0079091213929001817411F074
:1002CE00E4A3F0900003E024FBFFE434FFFE788308
:1002DE007C017D017B017A017906120B9590000459
:1002EE00E0540344DCF508900003E014FF7A017B30
:1002FE0081C208AD0802056B900006E0543F640110
:10030E00706EF508900003E024FBFFE508C39F50D4
:10031E002174082508F582E43400F583E0FF1216F7
:10032E00E574062508F582E43401F583EFF005083F
:10033E0080D29001817411F0E4A3F0900003E024C8
:10034E00FBFFE434FFFE78837C017D017B017A01A3
:10035E007906120B95900004E0540344DCF50890E6
:10036E000003E014FF7A017B81C208AD0802056B21
:10037E00900006E0543F64026003020419F50890F1
:10038E000003E024FBFFE508C39F504174082508D5
:10039E00F582E43400F583E0FF74092508F582E464
:1003AE003400F583E0FD1215D7AD07AC06740625B3
:1003BE0008F582E43401F583ECF00508740625088F
:1003CE00F582E43401F583EFF0050880B2900181E7
:1003DE007411F0E4A3F0900003E024FBFFE434FF7B
:1003EE00FE78837C017D017B017A017906120B95E3
:1003FE00900004E0540344DCF508900003E014FF81
:10040E007A017B81C208AD0802056BE4900181F090
:10041E00A304F0900004E0543F44C0F5087A017B39
:10042E0081C208FD7F0402056BE4900181F0A37484
:10043E0002F0900004E0543F44C0F5087A017B813D
:10044E00C208FD7F0402056B900006E0FFC3940313
:10045E00505BA3E0640170201216F3E4900181F06A
:10046E00A3F0900004E0540344DCF5087A017B818C
:10047E00C208FD7F0402056B900007E0701090002B
:10048E0006E0FF121701E4900181F0A38008E490CA
:10049E000181F0A37402F0900004E0540344DCF5F3
:1004AE00087A017B81C208FD7F0402056BE490018E
:1004BE0081F0A37402F0900004E0540344DCF508CC
:1004CE007A017B81C208FD7F0402056B7F01121643
:1004DE0076900000E050054401F0800354FEF07F5A
:1004EE0002121676900000E050054402F08003548C
:1004FE00FDF0900181741BF0A37402F0900000E0F7
:10050E00900183F0900004E0540344DCF5087A0176
:10051E007B81C208FD7F058044E4900181F0A30435
:10052E00F0900004E0543F44C0F5087A017B81C28C
:10053E0008FD7F048027E4802FE4802CE4802912BC
:10054E0015F4E4900181F0A304F0900004E0543F10
:10055E0044C0F5087A017B81C208FD7F041217277B
:0C056E009001057403F022E4900105F0F8
:01057A00225E
:1015F400900004E0543F4440F5087A017B81C2081E
:03160400FD7F0265
:0A160700A20892091210B17F01221F
:0A172700A20892091210B17F0122FE
:10162D00900181EFF0900004E0543F4480FD7A0179
:09163D007B81C2087F030216073D
:0810B1008F0A8D0B8A0C8B0DD8
:1010B900E4F50E7F5512154BAF0A12154BE50A627E
:1010C9000E300934E50B543C1313543FFF7012E5FD
:1010D9000B54FCFE900180E0FD04F0ED54032EF565
:1010E9000FBF0717E50B54FCFF900201E0FE04F067
:1010F900EE54032FF50F8003850B0FAF0F12154B1D
:10110900E50F620E750F03E50A2401FFE433FEC300
:10111900E50F9FEE6480F87480985021850D8285D3
:101129000C83E0FF12154B050DE50DAE0C700205A1
:101139000C14F5828E83E0620E050F80CAAF0E1281
:05114900154B0200033C
:10154B00E51614B515037F0022AE15051574832E11
:10155B00F582E43400F583EFF0E515B48003E4F590
:04156B00157F0122C5
:1000030020011BAF16051674832FF582E43400F527
:0F00130083E0F599E516B48003E4F516D20122D7
:0414C500AB07AA06C1
:1014C900EDC3948040037F0022E4FCECC39D5019D6
:1014D9000BEBAE0270010A14F5828E83E0FF121540
:0E14E9004BEF7002FF220C80E21200037F0125
:0114F70022D2
:03171800011800B5
:0300230002126165
:10126100C0E0C0F0C083C082C0D075D000C000C053
:0D12710001C002C003C004C005C006C007D4
:10127E0030980DC29890021FE599F0E0FF120E8390
:10128E00309927C299D200E5166515601BAF160579
:10129E001674832FF582E43400F583E0F599E51694
:0A12AE00B480077516008002C2012B
:1012B800D007D006D005D004D003D002D001D0008A
:0B12C800D0D0D082D083D0F0D0E03234
:020E8300AD07B9
:100E8500E51814601F14603E1460772403600302A4
:100E95000F50ED64556003020F53751801F5179057
:100EA5000002F022EDD394804003020F539000021C
:100EB500E0FE04F074032EF582E43400F583EDF0D2
:100EC500621775180222ED543C1313543F24F96040
:100ED5000D24077012ED5403900180F0800BED5442
:100EE50003900201F08002D206900002E0FF04F0B8
:100EF50074032FF582E43400F583EDF0621775185D
:100F05000322900003E0FF900002E0FEB50726E40F
:100F1500F518EDB5171074032EF582E43400F5834A
:100F25007401F0D2032274032EF582E43400F583B4
:100F3500E4F0D20522900002E0FF04F074032FF5DF
:0E0F450082E43400F583EDF0621722E4F51823
:010F5300227B
:1008E500000000000000005F000000070007001482
:1008F5007F147F14242A7F2A122313086462364941
:100905005522500005030000001C22410000412231
:100915001C00082A1C2A0808083E08080050300058
:10092500000808080808006060000020100804029C
:100935003E5149453E00427F4000426151494621B2
:1009450041454B311814127F1027454545393C4A1E
:10095500494930017109050336494949360649496E
:10096500291E003636000000563600000008142205
:1009750041141414141441221408000201510906EB
:10098500324979413E7E1111117E7F494949363EF2
:10099500414141227F4141221C7F494949417F090B
:1009A5000901013E414151327F0808087F00417F1E
:1009B50041002040413F017F081422417F404040D3
:1009C500407F0204027F7F0408107F3E4141413E83
:1009D5007F090909063E4151215E7F0919294646CD
:1009E5004949493101017F01013F4040403F1F20F6
:1009F50040201F7F2018207F6314081463030478A8
:100A05000403615149454300007F41410204081038
:100A15002041417F00000402010204404040404063
:100A2500000102040020545454787F484444383867
:100A350044444420384444487F3854545418087E6C
:100A4500090102081454543C7F0804047800447DCD
:100A550040002040443D00007F10284400417F4075
:100A6500007C041804787C0804047838444444382D
:100A75007C14141408081414187C7C080404084811
:100A850054545420043F4440203C4040207C1C20CA
:100A950040201C3C4030403C44281028440C505019
:100AA500503C4464544C44000836410000007F002B
:100AB50000004136080008082A1C0800000707073F
:0E16D600E4FFFE0FBF00010EBE05F8BFDCF5FD
:0116E40022E3
:1011DD0090021CE0FF7004D2A38002D295EF700440
:1011ED00C2A18002C2871216D61216D61216D612B8
:1011FD0016D690021CE07004C2A38002C2957F40F7
:10120D0012141D7FA112141D7FC012141D7FA61272
:10121D00141D7FA212141D7F2F12141D7FF812149E
:10122D001DE4FF12141D7F2712141D7F8112141D42
:10123D007F1412141D7FAC12141DE4FF12141D90A7
:10124D00021CE07004D2A38002D2951215B51216BD
:04125D00B302159330
:10159300C2AF90021CE07004C2A38002C2957FAF69
:1015A30012141D90021CE07004D2A38002D295D2C3
:0215B300AF2265
:1015B500C2AF90021CE07004C2A38002C2957FAE48
:1015C50012141D90021CE07004D2A38002D295D2A1
:0215D500AF2243
:10156F00C2AF90021CE07004C2A38002C295EF4488
:10157F00B0FF12141D90021CE07004D2A38002D29F
:04158F0095D2AF2220
:101491008F14C2AF90021CE07004C2A38002C295F7
:1014A100E5145470C4540F4410FF12141DE5145474
:1014B1000FFF12141D90021CE07004D2A38002D20F
:0414C10095D2AF22EF
:1016B300750801AF081213390508E508C3940940FA
:0116C300F234
:0116C4002203
:10133900EFC394014052EFD39408504CEF14FF12BD
:10134900156FE4FF121491C2AF90021CE0FF700404
:10135900D2A18002D287EF7004C2A38002C295E4B1
:10136900F509E4FF12141D0509E509C3948040F24B
:1013790090021CE0FF7004C2A18002C287EF7004D2
:08138900D2A38002D295D2AF7D
:011391002239
:060F54008B088A09890ADE
:100F5A00EFC39401500302100AEFD394084003022E
:100F6A00100AEF14FF12156FE4FF121491E4F50B47
:100F7A00AB08AA09A90A850B82758300120BD4FF54
:100F8A00D3947F5006EFC394205005750D2080023C
:100F9A008F0DC2AF90021CE0FF7004D2A18002D272
:100FAA0087EF7004C2A38002C295E4F50C75F005C0
:100FBA00E50DA42445F582E5F03408F583E582259C
:100FCA000CF582E43583F583E493FF12141D050CB6
:100FDA00E50CC3940540D6E4FF12141D90021CE0F0
:100FEA00FF7004C2A18002C287EF7004D2A38002FC
:100FFA00D295D2AF050BE50BC394155003020F7AB5
:01100A0022C3
:1013DD008F128D13E512C394014015E512D39408B5
:1013ED00500EE513C394014007E513D394804003D9
:1013FD007F0022E51214FF12156FE51314FF12146E
:10140D009190021AE512F0900219E513F07F012276
:060D89008B088A09890AAB
:100D8F00120C13F50B900002120C3EFFAEF0900206
:100D9F0019E0FDFBC374819BFBE49400FAC3EB9F46
:100DAF00EE6480F8EA6480985008C374819DF50F53
:100DBF0080028F0FAB08AA09A90A120C13FFAEF01D
:100DCF0090021AE0FDFBC374099BFBE49400FAC385
:100DDF00EB9FEE6480F8EA6480985008C374099D15
:100DEF00F50D80028F0DE4F50CE50CC3950D400356
:100DFF00020E82C2AF90021CE0FF7004D2A18002EB
:100E0F00D287EF7004C2A38002C295E50C2402F5CD
:100E1F0011E433F510E4F50EE50EC3950F5028E5F8
:100E2F001125E0FFE51033AB08AA09A90A8F82F557
:100E3F0083120C3EFF12141DE50B2511F511E4353D
:100E4F0010F510050E80D190021CE0FF7004C2A1B6
:100E5F008002C287EF7004D2A38002D295D2AF90E6
:100E6F00021AE004FFF0900219E0FD1213DD050CE9
:030E7F00020DF869
:010E8200224D
:1014F80055445320576972656C6573732028536986
:101508003130787829002020284669726D77617219
:0B151800653A20202020200929200037
:1012D300EF70621216B37D147F011213DD7BFF7A68
:1012E30005797B120D8978027C027D017BFF7A14DC
:1012F30079F87E007F15120B957B017A0279027FC4
:1013030007120F5478027C027D017BFF7A15790E58
:101313007E007F15120B95780F7C027D017BFF7A8F
:101323001679517E007F05120B957B017A027902B3
:061333007F08120F542296
:10057B000005005700000000000000C000610000F3
:10058B0000000000006000C20000000000000060DE
:10059B0000C400000000000000C000780000000054
:1005AB00003E0000000000000080007F0000000003
:1005BB00000000C000FF00000000000000E000FF92
:1005CB0000010000000000F000FF0003000000002D
:1005DB0000F800FF00E700FF000000F800FF000735
:1005EB000000000000FC00FF000F0000000000FEF8
:1005FB0000FF000D0000000000FE007F000800005F
:10060B00000000FF003F00080000000000FF003F5B
:10061B0000E000FF008000FF001F00000080008052
:10062B0000FF001F0000008000C000C7000F00008B
:10063B00008000C00083000F0000000000E00001FC
:10064B00000F0000000000E00000000F00000000A1
:10065B0000E00000000F0000000000700000000F21
:10066B0000E000FF0070000000CE00000000003032
:10067B00000000EE000100000038000000FE000149
:10068B0000000018000000FE00030000001800002E
:10069B0000FE000300000018000000FC00C3007FF8
:1006AB00000C000000FC006300C0000C000000FC0C
:1006BB00006700C0000C000000FC00C700600006D3
:1006CB00000E00FC000700000006001F00FC0007E6
:1006DB0000000086003F00FC0007000000C2003F46
:1006EB0000FC0007000000C2007F00FC00C7007F79
:1006FB0000E3006F00FC006700C000E3004F00FC4C
:10070B0000C7007F00F1004F00FC0007000000F164
:10071B00004F00FC0007000000F9004F00FC000335
:10072B00000000F9004700FC0003000000F900473F
:10073B0000FC0003000000FC004700FE00E300FF8C
:10074B0000FC004700FE00C1000700FC00C700FFD3
:10075B000001003C00FC00C700FF00E100FF00FCB3
:10076B0000C700FF0000000000FE00C700FF0000F4
:10077B00000000FE00C7007F0000000000FE0087A5
:10078B00003F0000000000FE0087003F0004000057
:10079B0000FE0007001F0004000000FE0007000E13
:1007AB000004000000FE000700000004000000FC35
:1007BB00000700000002000000FC00070000000220
:1007CB00000000FC000700000002000000FC000716
:1007DB00000000E300FF00F80007000000010080AC
:1007EB0000F8000700800001008000F00006008088
:1007FB00000100800060000E00C00000000000003F
:10080B00000E00C0000000000000000E00600000A1
:10081B0000000000000E0060000000E00000001E61
:10082B0000700000003F0000001E003800E00021B7
:10083B000000003E003C0000003F0000007E001E58
:10084B00000000E0000000FF001F0000000000009F
:10085B0000FF000F00000000008200FF000F0000EF
:10086B00000000C600FF00070000000000EE00FFC4
:10087B00000300E000FF00FC00FF000100200084EB
:10088B0000FC00FF00000020008400F800FF0000C7
:10089B0000C0007B00F0007F00000000000000E0C3
:1008AB00001F00000000000000C0000F000000004F
:1008BB000000000E0003000000C00061000E0000ED
:1008CB000000006000C2000E00000000006000C4C9
:0A08DB0000000000000000C00078DB
:10115D00020C76E493A3F8E493A34003F68001F226
:10116D0008DFF48029E493A3F85407240CC8C33393
:10117D00C4540F4420C8834004F456800146F6DF62
:10118D00E4800B010204081020408090170FE47ECC
:10119D00019360BCA3FF543F30E509541FFEE49357
:1011AD00A360010ECF54C025E060A840B8E493A31E
:1011BD00FAE493A3F8E493A3C8C582C8CAC583CA49
:1011CD00F0A3C8C582C8CAC583CADFE9DEE780BE01
:01171B0000CD
:100AC500E709F608DFFA8046E709F208DFFA803E13
:100AD50088828C83E709F0A3DFFA8032E309F60800
:100AE500DFFA8078E309F208DFFA807088828C8368
:100AF500E309F0A3DFFA806489828A83E0A3F6081C
:100B0500DFFA805889828A83E0A3F208DFFA804CF5
:100B150080D280FA80C680D4806980F280338010CC
:100B250080A680EA809A80A880DA80E280CA803335
:100B350089828A83ECFAE493A3C8C582C8CCC583AD
:100B4500CCF0A3C8C582C8CCC583CCDFE9DEE7807D
:100B55000D89828A83E493A3F608DFF9ECFAA9F0FC
:100B6500EDFB2289828A83ECFAE0A3C8C582C8CC52
:100B7500C583CCF0A3C8C582C8CCC583CCDFEADE6B
:100B8500E880DB89828A83E493A3F208DFF980CCCD
:100B950088F0EF60010E4E60C388F0ED2402B404C6
:100BA5000050B9F582EB2402B4040050AF2323456D
:060BB5008223900B157372
:100BBB00BB010689828A83E0225002E722BBFE0238
:090BCB00E32289828A83E493226B
:100BD400BB010CE58229F582E5833AF583E02250D6
:100BE40006E92582F8E622BBFE06E92582F8E22220
:0D0BF400E58229F582E5833AF583E493223A
:100C0100BB010689828A83F0225002F722BBFE01D2
:020C1100F322CC
:100C1300BB010A89828A83E0F5F0A3E022500687AC
:100C2300F009E71922BBFE07E3F5F009E31922896E
:0B0C3300828A83E493F5F074019322A1
:100C3E00BB0110E58229F582E5833AF583E0F5F0F4
:100C4E00A3E0225009E92582F886F008E622BBFED1
:100C5E000AE92582F8E2F5F008E222E5832AF58317
:080C6E00E993F5F0A3E99322DC
:00000001FF
