:0400000002001132B7
:03000B0002027B73
:03006A0002000E83
:03000E0002006D80
:20006D0053D9BF1200ED12010E120112D2AF120167858243E54370FC90CAC075F0897436B8
:20008D0012028975820712045E75120075827112012175121275820C1201217512157582BE
:2000AD000D1201217512097582071201219000D012022E758202120144E5825403FFBF02C0
:2000CD001CB29590145812022E90145812022E90145812022E90145812022E80E480FE22B4
:2000ED0043E24043A51575A70F43A51575A70043A64075A70F43A64075A700C2A643E340E6
:20010D002275A9142275844075B00075850043B001D29422AF82C294C2B774804FF586309A
:20012D00B1FD85128630B1FD74805584FFBF800280F6C2B7D29422AF82C294C2B78F863040
:20014D00B1FD75860030B1FD74805584FFBF800280F6858682C2B7D29422C2A69014581284
:20016D00022E758201120144AF82BFFF057582028047EF7005758202803FBF050050057595
:20018D0082038035758204120144E582FF20E0051201C78024EF20E11D7512027582061238
:2001AD0001219001A012025730810820A9FA75820480061202827582002275120075820545
:2001CD0012012175120075820612012175820312014475820412014475128175820712016A
:2001ED00219001A012025730810820A9FA758201802E120282758204120144E58220E11DA6
:20020D007512027582061201219001A012025730810820A9FA7582048006120282758200F1
:20022D0022AE82AF83C3E49EFEE49FFF8E128F13C28CC28D758901758E0285128A85138C40
:20024D00D28C308DFDC28CC28D22AE82AF83C3E49EFEE49FFF8E128F13C28CC28D758901B5
:20026D00758E0285128A85138CD28CD2A922C2A9C28DC28C32C2A9C28DC28C228582088534
:20028D00830985F00AF50BC3E4950874389509749C950A741C950B400302034CE50924C86B
:2002AD00F509E50A3463F50AE50B34E3F50B75120075132D75143175150185088285098306
:2002CD00850AF0E50B12046CAA828A12751300751400751500902D0075F0317401C0021221
:2002ED0004D1AC82AD83AEF0FFE508C39CF508E5099DF509E50A9EF50AE50B9FF50B750EB1
:20030D0071750F02E4F510F511850882850983850AF0E50B12042585820885830985F00A81
:20032D00F50BD002E5082508F508E50933F509E50A33F50AE50B33F50B4302200203FFE516
:20034D000924E4F509E50A34B1F50AE50B34F1F50B751280751396751498751500850882BA
:20036D00850983850AF0E50B12046CAC828C028A1275130075140075150090968075F098D8
:20038D00E4C0021204D1AC82AD83AEF0FFE508C39CF508E5099DF509E50A9EF50AE50B9FDB
:2003AD00F50B750E71750F02E4F510F511850882850983850AF0E50B1204258582088583E6
:2003CD000985F00AF50BD002E5082508F508E50933F509E50A33F50AE50B33F50BE508252A
:2003ED0008F508E50933F509E50A33F50AE50B33F50B74404AF512AC08AD098C0C8D0D7572
:20040D008275120121850D12758276120121850C1275827712012122AC82AD83AEF0FFE518
:20042D0011C313FBE51013FAE50F13F9E50E132CFCE93DFDEA3EFEEB3FFF850E12850F13DF
:1F044D008510148511158C828D838EF0EF12046C22AF8274184FF51275826D1201212240
:20046C00FB7A20E4FCFDFEFFE5822582F582E58333F583E5F033F5F0EB33FB4017DAE980C9
:20048C0042E5822582F582E58333F583E5F033F5F0EB33FBEC33FCED33FDEE33FEEF33FFF8
:2004AC00EC9512ED9513EE9514EF95154013EC9512FCED9513FDEE9514FEEF9515FF438272
:0504CC0001DABEEB2285
:06004000E478FFF6D8FD94
:20001E007900E94400601B7A00900543780175AA00E493F2A308B8000205AAD9F4DAF2752C
:02003E00AAFF17
:2004D100AAF0FBE5828512F0A4FCADF0E5838512F0A42DFDE435F0FEE5828513F0A42DFDCA
:2004F100E5F03EFEE433FFEA8512F0A42EFEE5F03FFFE5838513F0A42EFEE5F03FFFE58236
:200511008514F0A42EFEE5F03FFFEB8512F0A42FFFEA8513F0A42FFFE5838514F0A42FFF13
:0E053100E5828515F0A42F8EF08D838C82223A
:200046007800E84400600A790175AA00E4F309D8FC7800E84400600C7900900001E4F0A3AE
:04006600D8FCD9FAEF
:0D00110075811512053FE582600302000EA7
:04053F00758200229F
:00000001FF
