:0801450002080000020A00009C
:10012100E4F5A753D9BF12000E120134120104D213
:03013100AF80FE9E
:0A000E00AFA7E4F5A775A9348FA78A
:0100180022C5
:10013400AFA775A70F43D92043DC207596408FA73E
:010144002298
:10010400AFA7E4F5A7538EF8438E02758903758A69
:0C011400CC758CCC43885043A80A8FA700
:0101200022BC
:03000B000200DB15
:0900DB00C0E0C0D075D000C006E1
:1000E400758ACC0509E509AE08700205081464C8D0
:0900F4004E7006F508F509B295FD
:0700FD00D006D0D0D0E032A4
:03001B000200AA36
:0B00AA00C0E0C0D075D000C006C00749
:1000B500758CCC050BE50BAE0A7002050A14FFBE64
:0D00C500010BBFF408750A00750B00B28531
:0900D200D007D006D0D0D0E032F6
:0300000002001EDD
:0C001E00787FE4F6D8FD75810B020065C8
:10002A00020121E493A3F8E493A34003F68001F2CA
:10003A0008DFF48029E493A3F85407240CC8C333D7
:10004A00C4540F4420C8834004F456800146F6DFA6
:10005A00E4800B0102040810204080900145E47EF0
:10006A00019360BCA3FF543F30E509541FFEE4939B
:10007A00A360010ECF54C025E060A840B8E493A362
:10008A00FAE493A3F8E493A3C8C582C8CAC583CA8D
:10009A00F0A3C8C582C8CAC583CADFE9DEE780BE45
:01014D0000B1
:00000001FF
