:10007500E4F5A753D9BF12009412005E12002CD2EA
:03008500AF80FE4B
:0A009400AFA7E4F5A775A9048FA734
:01009E00223F
:10005E00AFA775A70F43B60143D90243D904439501
:06006E00187596408FA7F3
:010074002269
:10002C00E4F5A7F5D853D9F143D90875DA4DF5F9AC
:10003C00F5FA75FB64F5FCE5FB2464F509E435FC85
:08004C00F50843E610D2DE22A4
:03005B000200039D
:10000300C0E0C0D075A70030D817C2D8E509F5FB0A
:10001300E508F5FCE5FB2464F509E435FCF5088007
:090023000353D879D0D0D0E032AB
:0300000002008873
:0C008800787FE4F6D8FD75810902007550
:00000001FF
