:10000E00E4F5A753D9BF12009212003D12005AD246
:10001E0085D2AF900000AF82AE83E4FCFD7B19FA6F
:0F002E00F9F8D31200704003A380EBB28180E495
:0A009200AFA7E4F5A775A9348FA706
:01009C002241
:10003D00AFA775A70F53D9FE43D90253D9FB43D9A7
:0C004D000843D92075DE0A7596418FA784
:010059002284
:10005A00AFA7E4F5A775890CD2A9758811758CFC30
:05006A00758A1C8FA740
:01006F00226E
:03000B0002009D53
:09009D00758CFC758A1CB28532D9
:0300000002008675
:0C008600787FE4F6D8FD75810702000EBB
:10007000EB9FF5F0EA9E42F0E99D42F0EC6480C807
:0600800064809845F022A7
:00000001FF
