:020000040000FA
:10000000021433E709F608DFFA8046E709F208DF51
:10001000FA803E88828C83E709F0A3DFFA8032E31E
:1000200009F608DFFA8078E309F208DFFA807088C1
:10003000828C83E309F0A3DFFA806489828A83E0FB
:10004000A3F608DFFA805889828A83E0A3F208DFEA
:10005000FA804C80D280FA80C680D4806980F28099
:1000600033801080A680EA809A80A880DA80E280BF
:10007000CA803389828A83ECFAE493A3C8C582C814
:10008000CCC583CCF0A3C8C582C8CCC583CCDFE97E
:10009000DEE7800D89828A83E493A3F608DFF9EC1A
:1000A000FAA9F0EDFB2289828A83ECFAE0A3C8C5A5
:1000B00082C8CCC583CCF0A3C8C582C8CCC583CCCC
:1000C000DFEADEE880DB89828A83E493A3F208DF3B
:1000D000F980CC88F0EF60010E4E60C388F0ED240B
:1000E00002B4040050B9F582EB2402B4040050AF0E
:1000F000232345822390005373BB010689828A83A0
:10010000E0225002E722BBFE02E32289828A83E4D6
:100110009322BB010CE58229F582E5833AF583E061
:10012000225006E92582F8E622BBFE06E92582F880
:10013000E222E58229F582E5833AF583E49322EF12
:100140008DF0A4A8F0CF8CF0A428CE8DF0A42EFEC4
:1001500022BC000BBE0029EF8DF084FFADF022E43D
:10016000CCF875F008EF2FFFEE33FEEC33FCEE9D7C
:10017000EC984005FCEE9DFE0FD5F0E9E4CEFD22A3
:10018000EDF8F5F0EE8420D21CFEADF075F008EF2E
:100190002FFFED33FD4007985006D5F0F222C398AB
:1001A000FD0FD5F0EA22C5F0F8A3E028F0C5F0F87D
:1001B000E582158270021583E038F022BB0110E55C
:1001C0008229F582E5833AF583E0F5F0A3E0225039
:1001D00009E92582F886F008E622BBFE0AE92582B5
:1001E000F8E2F5F008E222E5832AF583E993F5F0D9
:1001F000A3E99322BB010A89828A83F0E5F0A3F088
:10020000225006F709A7F01922BBFE06F3E5F00914
:10021000F31922F8BB0111E58229F582E5833AF54D
:1002200083E8F0E5F0A3F0225009E92582C8F6083A
:10023000A6F022BBFE09E92582C8F2E5F008F22209
:10024000E88FF0A4CC8BF0A42CFCE98EF0A42CFC5D
:100250008AF0EDA42CFCEA8EF0A4CDA8F08BF0A4DB
:100260002DCC3825F0FDE98FF0A42CCD35F0FCEB3A
:100270008EF0A4FEA9F0EB8FF0A4CFC5F02ECD39FF
:10028000FEE43CFCEAA42DCE35F0FDE43CFC2275F6
:10029000F008758200EF2FFFEE33FECD33CDCC3367
:1002A000CCC58233C5829BED9AEC99E58298400CCF
:1002B000F582EE9BFEED9AFDEC99FC0FD5F0D6E4AD
:1002C000CEFBE4CDFAE4CCF9A88222B800C1B90093
:1002D00059BA002DEC8BF084CFCECDFCE5F0CBF9F4
:1002E0007818EF2FFFEE33FEED33FDEC33FCEB33EC
:1002F000FB10D703994004EB99FB0FD8E5E4F9FA1A
:10030000227818EF2FFFEE33FEED33FDEC33FCC9FE
:1003100033C910D7059BE99A4007EC9BFCE99AF991
:100320000FD8E0E4C9FAE4CCFB2275F010EF2FFF00
:10033000EE33FEED33FDCC33CCC833C810D7079B6A
:10034000EC9AE899400AED9BFDEC9AFCE899F80FCD
:10035000D5F0DAE4CDFBE4CCFAE4C8F922EB9FF562
:10036000F0EA9E42F0E99D42F0E89C45F022E86008
:100370000FEFC333FFEE33FEED33FDEC33FCD8F16A
:1003800022E6FB08E6F908E6FA08E6CBF822ECF6E6
:1003900008EDF608EEF608EFF622ECF0A3EDF0A378
:1003A000EEF0A3EFF022D083D082E493F60874013C
:1003B00093F608740293F608740393F6740473A812
:1003C000828583F0D083D0821203D61203D6120323
:1003D000D61203D6E473E493A3C583C5F0C583C8DE
:1003E000C582C8F0A3C583C5F0C583C8C582C8222D
:1003F000A42582F582E5F03583F583228A838982FC
:10040000E473EC8EF0A4CCC5F0CCCDF8EFA4CEC54F
:10041000F02DFDE43CFCE8A42EC8C5F03DFDE43C15
:10042000FCEFA4FFE5F028FEE43DFDE43CFC22BB2C
:10043000010689828A83F0225002F722BBFE01F373
:1004400022FAE6FB0808E6F925F0F618E6CA3AF6BD
:1004500022D083D082F8E4937012740193700DA3BC
:10046000A393F8740193F5828883E473740293680C
:1004700060EFA3A3A380DFE5412435F8E605412220
:1004800078323007027835E475F001120441020039
:10049000F92000EB7F2ED2008018EF540F2490D467
:1004A0003440D4FF30040BEF24BFB41A00500324AF
:1004B00061FFE542600215420545E54570020544CD
:1004C00030070D7832E475F001120441EF02042F79
:1004D0000220B07403D2078003E4C207F5418B32D7
:1004E0008A338934E4F542F544F545E54260077FF7
:1004F000201204B280F57543FFC201C200C202C2DD
:1005000003C205C206C208120480FF700D30070541
:100510007F001204C3AF45AE4422B4255FC2D5C2EA
:1005200004120480FF24D0B40A00501A75F00A782F
:100530004230D50508B6FF0106C6A426F620D5042C
:100540007002D20380D924CFB41A00EF5004C2E560
:10055000D2040206C3D20180C6D20080C0D202807B
:10056000BCD2D580BAD20580B47F201204B220025A
:10057000077401B5420040F1120477FF1204B20281
:1005800004EBD208D2068095120477FB120477FAA6
:10059000120477F94A4B700679947A077BFF2002A0
:1005A0002EE542602A7E008E827583001201126061
:1005B000060EEE654370F0C2D5EBC0E0EAC0E0E99C
:1005C000C0E0EE12070AD0E0F9D0E0FAD0E0FB126A
:1005D00000F9FF60AAEBC0E0EAC0E0E9C0E0120465
:1005E000B2D0E02401F9D0E03400FAD0E0FBE543DA
:1005F0000460DCD543D980877BFF7A077906D20275
:10060000809C791080027908C206C2088008D2D581
:10061000790A8004790AC2D5E543047002F543E4FF
:10062000FAFDFEFF120477FC7B0820011312047709
:10063000FD7B1030000A120477FE120477FF7B2046
:10064000EC3382D592D55013C3E43000069FFFE40B
:100650009EFEE42001039DFDE49CFCE4CBF8C20176
:10066000EC700CCFCECDCCE824F8F870F38017C333
:10067000EF33FFEE33FEED33FDEC33FCEB33FB9950
:100680004002FB0FD8E9EB300105F8D0E0C448B2D6
:1006900001C0E00AEC4D4E4F78207B0070C2EAB5F5
:1006A000430040BCC0E012070CD0F0D0E0200104B1
:1006B000C4C0E0C4B201C0F012049BD0F0D5F0EB8E
:1006C0000204EB12045105885306025805594C05E3
:1006D000554206064F060E44060E49056E430614A3
:1006E0005505F84605F84505F84707B450055D2D52
:1006F00005612E05842B056523058220079D2A05AB
:100700001D480000057C3F3F3F00790AA2D5200329
:1007100014300509B910020404B9080104A2D52057
:1007200006025001042002689202B542005034C013
:10073000E07F203003197F30A20272067205500F4D
:10074000120763C202C206C205C2087F30800F30A2
:100750000503E9C0E01204B2300503D0E0F9D0E0AF
:10076000B542CC3005177F30B9100C1204B27F5857
:100770003004077F788003B908031204B230020501
:100780007F2D0204B27F202008F87F2B2006F32261
:10079000920280CF286E756C6C2900D2011204770A
:1007A0003001F8C201784230D50108F602051D2D4E
:1007B000504349581204772403B405004001E490E3
:1007C00007AF931204A3743A1204A3D20375420430
:1007D00002060290022F1203BF0000000012142430
:1007E000A31203BF00000000E4900249F0900273DE
:1007F000E0FF900249E0FBC39F400302098690029C
:100800002F1203BF00000000121424A31203BF0024
:10081000000000EB1213BDE0700302097D90024955
:100820001213A390023FC91213DB1213E31213B188
:10083000900242C91213DBE4A3F0900249E01213C4
:1008400094E0FF900245E0FEC39F4003020921901F
:10085000023F1213CF8E821213F4FF900248F0125F
:100860002032900239EEF0A3EFF0900248E075F0EC
:1008700012A42408F582E5F03400F583E0FCA3E03F
:10088000FD90023BECF0A3EDF0C3EF9DEE9C500514
:10089000121424801B90023BE0FEA3E0FFC39002F1
:1008A0003AE09FFF900239E09E900233F0A3EFF010
:1008B0009002421213CFA31213F1FF900246E4F00C
:1008C000A3EFF090022FE0F8A31213B3FBC0009047
:1008D0000246E0FEA3E0FF900233E0FCA3E0FD123D
:1008E0000402D000EB2FFFEA3EFEE93DFDE83CFCB0
:1008F00090022F12039A12142C1213B3FB9002339E
:10090000E0FEA3E0FFE4FCFDEB2FFFEA3EFEED3945
:10091000FDEC38FCA312039A900245E004F00208B3
:100920003A900249E0FF7D231216B8E4FCFD121450
:100930002C1213B3FBC312035D500B900249E0125B
:1009400013BDE4F0802012142C1213B3FB90022F7D
:10095000E0FCA3E0FDA3E0FEA3E0FF1202CB9002C7
:100960003DEEF0A3EFF090023DE0FEA3E0FF900229
:1009700049E075F014121418EEF0A3EFF09002495C
:10098000E004F00207ED22E490022FF0A3F09002C1
:100990002FE0FCA3E0FDC3950B7480F8EC64809815
:1009A0004003020AEBAF05E4FD121A019002311276
:1009B0001C6C7D01121A01900233121C6C12246D02
:1009C000900236EEF0A3EFF0900233E0FEA3D312D4
:1009D0001C87402B900236E0FEA3E0FF900234E03B
:1009E0002FFD900233E03ED3121C9440129002344B
:1009F000E02FFF900233E03E900231F0A3EFF09041
:100A00000233E0FEA3C3121C87502D900236E0FE95
:100A1000A3E0FFC3900234E09FFD900233E09EC349
:100A2000121C945013C3900234E09FFF900233E0F5
:100A30009E900231F0A3EFF0E4900233F0A3121C79
:100A400070121CE9900235EFF090022FE0FE121CAC
:100A5000A0EE75F012A42583F583E0FCA3E0FDA3CE
:100A6000E0FEA3E0FFC0077876E6FBE4FAF9F8D0F1
:100A7000071202CBC004A905AA06AB077876E624C4
:100A8000FFFFE434FFFEE4FCFDD000120240C0048E
:100A9000C005C006C0077876E6FBE4FAF9F89002D4
:100AA00031E0FCA3E0FDA3E0FEA3E0FF1202CBD007
:100AB00003D002D001D000EB2FFFEA3EFEE93DFD5E
:100AC000E83CFC90022FE0FA121CA0EA75F012A498
:100AD0002583F58312039A900230E004F06003024C
:100AE000098E90022FE004F002098E22E47866F667
:100AF00008F67853F67853E6FFC3950B4003020BD4
:100B000082E4FD121A017854A60608A6077853E677
:100B1000FF7D01121A017856EEF608EFF67854E6DA
:100B2000FC08E6FDD39FEC9E400EED785796795970
:100B3000F7EC189619F78012C37957E7785596FFA6
:100B400019E718967858F608A6077853E6FF122496
:100B50006DE4FCFDC004A905AA06AB077858E6FEC3
:100B600008E6FF7D64120402D0001202CB7858EE32
:100B7000F608EFF6786726F618EE36F67853060292
:100B80000AF5E47866F608F67F07FEFDFC78621247
:100B900003811202401224DCC004C005C006C00755
:100BA0007866E6FE08E6FFE4FCFD781012036E129C
:100BB00024DCD003D002D001D000EB2FFFEA3EFEB0
:100BC000E93DFDE83CFC786212038EE50BFD7C00FC
:100BD0007862E6FE08E6FF1201517868A60608A6CC
:100BE00007228F2978531203A600000000121EA8C6
:100BF000E0FEA3E07857A60608F6AF297E0012248F
:100C000093EF6003020CC8AF29121CE9EF64016086
:100C10000E121ECAFEA3E07859A60608F6800EE45E
:100C2000FDAF29121A017859A60608A6077857E6DB
:100C3000FE08E6FF08E6FC08E6FDD39FEC9E4009AF
:100C4000121EB9E0240AF0800EC3ED9FEC9E5007FF
:100C5000121EB9E024F6F0121EB9E0FFD3648094AE
:100C6000E4400D121EA8E475F0011201A6020CC3A7
:100C7000C3EF6480941C5050AF29121CE9EF64014B
:100C80007032E509C313FEE50A13FF121EA8E0FC4B
:100C9000A3E0C39FFFEC9EFE121ECAFCA3E0FDC3AF
:100CA0009FEC9E75F012E529500F121EADECF0A3DB
:100CB000EDF0800F75F012E529121EAD74FFF5F00E
:100CC0001201A6121EB9E4F022E47856F67856E630
:100CD000FFC3950B4003020DA075F012EFA424088A
:100CE000F582E5F03400F583E0FEA3E07859A6062E
:100CF00008F618E6FE08E6FF250AFDE5093EFC7841
:100D000057F608EDF6C39FEC9E50097856E675F04D
:100D100012020D95120DA1C006C0071223BD121AB2
:100D200001AC06AD07D007D006C3ED9FFFEC9EFED9
:100D3000785BF608EFF6C3EE64809480501418E6F2
:100D4000FE08E6FF7CFF7DFF12013F785BA60608E8
:100D5000A6077875E6FFC3785CE69F7480F5F01807
:100D60006695F0500D120DA1AA06AB071223BD1215
:100D700024371223BD1220877857E6FC08E6FDD3FE
:100D8000EF9DEE9C7856E675F01240091223B1E013
:100D90004440F080051223B1E4F0785606020CCDF1
:100DA000227856E6FF7D0112208722E51CB4010659
:100DB000121CABE4F51C754D00754E0075510075A5
:100DC0005212754F007550189001F8120E7790016D
:100DD000F9120E779001FA120E819001FB12241B7A
:100DE000121BEA9001FC12241B121C2B9001FD1215
:100DF000241B121B249001FF120E81E490022FF09D
:100E0000A3F0F551755201754D02754E2FF54F75D2
:100E100050187D01FFFE121A4F7868E6FF08E69031
:100E2000022FCFF0EF120E5A90022FE511F0E512CB
:100E3000120E5A90022FE50CF0A3E50DF07551004B
:100E4000755202754D02754E2F754F007550017D1C
:100E500002E4FFFE121A4F0224D3A3F0755100756D
:100E60005202754D02754E2F754F007550017D026F
:100E7000E4FFFE121A4F22E0FF7E007D02121A4F9D
:100E800022E0FF7E007D02121A4F224353323400CB
:100E90004353323600435332370043533235004315
:100EA00053343100435334360043533331004353FA
:100EB0003336004353323200435334330043533408
:100EC00034004353333300435333340043533230FD
:100ED0000043533435004353343200435333350019
:100EE00043533332004353323100435334370043CA
:100EF00053343000435333370043533330004353AC
:100F00003233002A53454E534F525F4445534352A8
:100F10004950544F525320002573207C20000A0072
:100F2000FF0E8BFF0E90FF0E95FF0E9AFF0E9FFF98
:100F30000EA4FF0EA9FF0EAEFF0EB3FF0EB8FF0EFC
:100F4000BDFF0EC2FF0EC7FF0ECCFF0ED1FF0ED6A7
:100F5000FF0EDBFF0EE0FF0EE5FF0EEAFF0EEFFFD8
:100F60000EF4FF0EF9FF0EFEE4F52AF52BF52FF532
:100F70002EF52DF52CF533F532F531F530F528E564
:100F800028C3950B4003021031E4F536F53774FFA2
:100F9000F534F535E4F533F532F531F530F529E57D
:100FA0002925E02471F8E4F608F60529E529B402BC
:100FB000EEE4F529AF281221D1AB07AA06E52925D1
:100FC000E02471F8A60208A603E4FCFDE5332FF542
:100FD00033E5323EF532ED3531F531EC3530F53073
:100FE0000529E529C3940240CBAF33AE32AD31AC15
:100FF00030E47B02FAF9F81202CB8F338E328D3156
:101000008C30E528121EAAEEF0A3EFF0E4F529E5F6
:1010100029C3951A5016AC32AD33AF28121860AC04
:1010200032AD33AF28121649052980E30528020F97
:101030007F22E4900231F0900273E0D394005003D9
:101040000210E7E490022FF0900273E0FF90022F6D
:10105000E0C39F40030210E71213A3900234C9F0CB
:10106000A3EAF0A3E91213BBE4F0900232F090027D
:1010700030F090022FE0FF121394E0FE900230E077
:10108000FDC39E50261213CC8D821213F4900233AE
:10109000F01213FA30E60C1213BC7401F090023116
:1010A000F0A3F0900230E004F080C7900232E060DC
:1010B0002DE4900230F090022FE0121394E0FF90A4
:1010C0000230E0FEC39F50161213CC8E821213F42E
:1010D0001213FA4440F0900230E004F080D89002FD
:1010E0002FE004F0021048900231E0FF228D2A75B3
:1010F000F012EDA42408F582E5F03400F583E0FC5D
:10110000A3E0FD785AECF608EDF67856A61108A68D
:101110001208A60C08A60DC3EF9DEE9C5008E478BB
:1011200060F608F68011785AE6FC08E6FDC3EF9DEC
:101130007861F6EE9C18F61222AA5480785C76004C
:1011400008F6AF2A1224E5785E760008A607785DD7
:10115000E6184670211222BC5005AF2A0224F6D3AD
:1011600078571222BF4036AF2A121DD3EF602E12DD
:1011700022AA4480F022785DE664011846701ED3EE
:101180001222BD4005AF2A0224EE1222BC500EAF3F
:101190002A121FD5EF60061222AA547FF0228F2850
:1011A0008D2912216AE5297004751FFF22E5296047
:1011B00033E490022FF090022FE0FFC394075024F5
:1011C000EF1221B7D39528501390022FE01221C4BB
:1011D000C395284007900230EFF0800890022FE07E
:1011E00004F080D2E51FB4FF06900230E0F51F90B6
:1011F0000230E0FF64066021EF2401FFE433FE7C4F
:1012000000EFB51F14ECB50610E51F1221B724FE40
:10121000FFE528C39F502C8024900230E0601E140C
:10122000B51F1AE51F1221C42402FFE433FED3E5E3
:10123000289FEE6480F87480984008800090023007
:10124000E0F51FAF1F121B6822122453786EE6FFD1
:1012500064036018EF64016013EF6402600302121C
:10126000EF9002A4E0640160030212EFE49002A494
:10127000F0786EE6FF64026005EF640170401221B1
:1012800046EF702CE513B4012C051EE51EAE1D7053
:1012900002051D14C39517EE95164019786E760356
:1012A000E4F51DF51E1225531225311215D38005C4
:1012B000E4F51DF51E786EE6B40103022487786E0E
:1012C000E6640370871224871212F0EF601B122568
:1012D0005012252BE508786E6005760202124C76D6
:1012E00001E4F51DF51E02124C12255302124C2288
:1012F000E4F52A12235D8E288F297870E6250DFFEC
:1013000018E6350CFED3E5299FE5289E40037F01B2
:1013100022E4FFEFC3951A504DEF25E0246AF8E66A
:10132000FC08E6FD786FE6FA08E6FBD3ED9BEC9A45
:101330004004052A8009C3ED9BEC9A5002152AD37C
:10134000E52A64809480400A787006E618701406D6
:101350008011C3E52A6480948050087870E61618DE
:101360007001160F80ADE51A14FFEFD394004019F9
:10137000EF25E02468F8E6FC08E6FDEF25E0246AA6
:10138000F8A60408A6051F80E1786AA62808A62901
:101390007F0022EF75F014A42484F582E5F0340276
:1013A000F58322E0FF75F014A42485F582E5F0347E
:1013B00002F583E0F9A3E0FAA3E022F0EF75F01460
:1013C000A4248BF582E5F03402F58322900234E008
:1013D000FBA3E0FAA3E0F922F583EBF0A3EAF0A384
:1013E000E9F02275F014EFA42488F582E5F03402C8
:1013F00022E0F58275830002011275F012A4240B1D
:10140000F582E5F03400F583E02275F014EFA424B2
:1014100085F582E5F0340222A42478F582E5F034E3
:1014200002F58322E4900233F0A3F022900235E02B
:10143000F8A322E4F5D9787FE4F6D8FD7581760229
:10144000147D02154CE493A3F8E493A34003F680C3
:1014500001F208DFF48029E493A3F85407240CC8B0
:10146000C333C4540F4420C8834004F4568001465B
:10147000F6DFE4800B01020408102040809014C2C3
:10148000E47E019360BCA3FF543F30E509541FFE86
:10149000E493A360010ECF54C025E060A840B8E4F7
:1014A00093A3FAE493A3F8E493A3C8C582C8CAC57A
:1014B00083CAF0A3C8C582C8CAC583CADFE9DEE70C
:1014C00080BE011FFF4402740302010044026F0A40
:1014D000141E2841027301602C0203FF191118FF2A
:1014E000191A18FF191E18FF192618FF192E18FFB0
:1014F000193518FF193C18FF194318FF194901FF46
:10150000195201FF195901011B00011C014102A4DC
:1015100000014600010B18011A0202090064010EC5
:1015200002021400140218001402160064010801DB
:1015300001130002110096020C007D020F00C80288
:101540006F0000021D000002680000001225191241
:1015500023891225431223171221F2122513122573
:101560000C1200F9F524900001120112F5259000EB
:1015700002120112F526900003120112F527122320
:10158000FA12253D900278A3E0FF90028BE0FD1255
:10159000119EE4F522752304E523C3950B5010AF8B
:1015A000237E0012249FEF60020522052380E9E5D7
:1015B0002270054380208008E522B401085380DFB3
:1015C00043902080065380DF5390DF120DAB121240
:1015D0004980ABE4F52CF52BF52AF529786FF60850
:1015E000F6F528E528C3951A501312235DE5282542
:1015F000E0246AF8A60608A607052880E6E4F52890
:10160000E528C3951A5027E52825E0246AF8E6FE68
:1016100008E6FFE4FCFDE52C2FF52CE52B3EF52B31
:10162000ED352AF52AEC3529F529052880D2AF1A9F
:10163000AB07E4FAF9F8AF2CAE2BAD2AAC291202B5
:10164000CB786FA60608A607228C388D39E4785629
:10165000F608F6EF75F012A42404F9740035F008CA
:10166000760108F608A601E51A147857F67857E6C9
:10167000D39400402CE6FD12176B860308E6FA08A7
:10168000E6F98F828E831201BCFFAEF075F002ED99
:10169000A4F58285F083EE8FF0120213785716803E
:1016A000CC7858860308E6FA08E6F9E5388539F07B
:1016B0001201F47856E6FF228F288D29E490024C1F
:1016C000F0A3F075F014EF1213A890024EC9121394
:1016D000DBE490024AF0E528121394E0FF90024AFE
:1016E000E0C39F503890024E1213CF90024A12135B
:1016F000F1FF90024BF012246DAD297C0012040220
:10170000E47B64FAF9F81202CB90024DE02FF090DE
:10171000024CE03EF090024AE004F080B990024CA6
:10172000E0FEA3E0FF22F075F012EFA4240CF58296
:10173000E5F03400F5832275F012A42404F582E567
:10174000F03400F58375F0022275F012A42400F540
:1017500082E5F034002290000B75F012EF1203F0D6
:10176000EE75F012A42583F583E02224FFFFE43414
:10177000FFFEEF25E0FFEE33FE082275F012A424F1
:101780000AF582E5F03400F58322EF1203F0ECF065
:10179000A3EDF022E47853F67853E6FFC3950B509F
:1017A00058121CE97855A607E418F67854E6FFC3EA
:1017B0009403504075F005EFA424E3F582E5F0347E
:1017C00022F583E493FF08E6B507247853E6FF0883
:1017D000E675F005A424E5F582E5F03422F583747E
:1017E0000193FA740293F5828A83120400800578CB
:1017F000540680B7785306809F22E4F529E529C373
:10180000950B5029E4FDAF29122087E529121C7899
:10181000EEF0A3EFF075F012E529A42410F582E5AF
:10182000F03400F583E4F0A3F0052980D0E50BC384
:10183000940450057876768022E50BC39408500511
:101840007876764022E50BC39410500578767620A2
:1018500022E50BC394207876500376102276082276
:10186000E47856F6F9EF121749AF8208F608A60792
:10187000E51A147856F67856E6FFD39400402DEF1B
:1018800012176BE6FA08E6FB8A832FF582E5833EA2
:10189000F583E0FEA3E0FF8B828A837856E675F03D
:1018A000021203F0EEF0A3EFF01680CA7857E6FEBE
:1018B00008E6F5828E83ECF0A3EDF0AF012285A956
:1018C00028E546704B7DFF7F071222C87D087F0503
:1018D0001222C87D077F061222C87D807F04122253
:1018E000C875A9747DC07F041222C87F407E03EFB3
:1018F0001F70011EEF4E70F77DC07F041222C87565
:10190000B5208528A9E5A930E7FB754BC0754601D0
:1019100022424153454C494E4500524157005052D6
:101920004F434553530053494E47414354004445A8
:1019300042414354005444454C544100455850568C
:10194000414C004E4F495345004E4F495345455376
:10195000540041435454485200494E414354544862
:1019600052007857A6A7E4F5A7785312038E75ACFA
:1019700014E54B54F7F5ADE5AC20E7FB75AC1878F2
:1019800056E6F5ADE5AC20E7FB7855E6F5ADE5AC00
:1019900020E7FB7854E6F5ADE5AC20E7FB7853E6AD
:1019A000F5ADE5AC20E7FB75AC14854BAD7857E69B
:1019B000F5A7228F29E4FFEFC3951A5018E52912E5
:1019C0001749F58375F00212178AE52912173712A5
:1019D000178A0F80E275F012E529A4240BF582E541
:1019E000F03400F583E4F0E50FC4F854F0C8E510D6
:1019F000C4540F48FFE52912177BEFF0AF290220EE
:101A0000FD8F2A8D2BED3395E0FCD3ED951A748074
:101A1000F86C98401975F012EFA424FEF582E5F0F9
:101A200034FFF58375F002E51A1203F0801BED25F3
:101A3000E0FFEC33FE75F012E52A12174CF583E552
:101A4000822FF582E5833EF583E0FEA3E0FF228D41
:101A50002C1220D7F52E8F2FE4F52DC3E52D9550B0
:101A6000E4954F5031E52CB4020D7A20797E122096
:101A7000E7A3E0F536800CE52CB4010A7A207982E0
:101A80001220E71204D9E552252FF52FE551352E06
:101A9000F52E052D80C522AFA7E4F5A790029AE5A3
:101AA000A9F075A904E5A930E7FB75A70F90029B83
:101AB000E5ECF0A3E5EDF0A3E5EEF0A3E5EFF0A390
:101AC000E5F1F0A3E5F2F0A3E596F0E4F5ECF5ED31
:101AD000F5EEF5EFF5F1F5F27596C08FA7227BFFD5
:101AE0007A0F79031204D9E4F52DE52D75F003A4DE
:101AF0002420F582E4340FF583E493FB740193FA18
:101B00007402938B358A36F5377BFF7A0F7918127A
:101B100004D9052DE52DC3941840CF7BFF7A0F79AA
:101B20001E0204D98D2C1220D7F52E8F2FE4F52D0F
:101B3000E52D1220E050307BFF7A20797E852F82C0
:101B4000852E83E0FEA3E07802C333CE33CED8F9EE
:101B5000F5368E351204D9E552252FF52FE551358E
:101B60002EF52E052D80C922EFB40700503A901BA8
:101B700075F8282873021B8A021B8C021B93021B18
:101B800095021B9C021B9E021BA580035390FB53D6
:101B900090F72280035390EF5390FB2280035390E1
:101BA000BF5390EF225390BF22EFB40700503A90FA
:101BB0001BB6F8282873021BCB021BCD021BD402D4
:101BC0001BD6021BDD021BDF021BE68003439004D1
:101BD00043900822800343901043900422800343E3
:101BE000904043901022439040228D2C1220D7F534
:101BF0002F8F30E4F52DAF2D1220DF502D85308250
:101C0000852F83E0F52EE52E7BFF30E7067A2079DD
:101C10007880047A20797B1204D9E5522530F5309A
:101C2000E551352FF52F052D80CC228D2C1220D794
:101C3000F52F8F30E4F52DAF2D1220DF502D85309C
:101C400082852F83E0F52EE52E7BFF30E6067A2095
:101C5000797880047A20797B1204D9E5522530F511
:101C600030E551352FF52F052D80CC22EEF0A3EF76
:101C7000F090022FA3E0FF2275F012A4240EF5824B
:101C8000E5F03400F58322E0FF900232E09F9002FD
:101C900031E09E22FC900232E09D900231E09C22D5
:101CA000A3E090000E75F0120203F01224D3121A72
:101CB000DE1224CAE4F52CE52C75F004A42403F903
:101CC000740235F0FA7B01782D7C007D007E007F68
:101CD000041200D3121F751224C1052CE52CC394E5
:101CE0000B40D41224D3021F438F2AE4FF75F00562
:101CF000EFA424E4F582E5F03422F583E493FDC3F8
:101D00007869E69D18E69400501175F005EFA4245B
:101D1000E3F582E5F03422F58380070FBF03CE9010
:101D200022EDE493FF22AFA7E4F5A7F59AF59B75A2
:101D30009CFF75A4FF75A5FFF5A675A70F75DDFFC0
:101D400075DFFF75C3FFF5A7F5A0F5E1F5E275A70F
:101D50000FF5DDF5DFF5C3F5EEF5EFF5F18FA78FA4
:101D6000A722AFA7E4F5A7F59AF59B759CFF75A48C
:101D7000FF75A5FFF5A675A70F75DDFF75DFFF756C
:101D8000C3FFF5A7F5A0F5E1F5E275A70FF5DDF5C1
:101D9000DFF5C3F5EEF5EFF5F18FA72275F003A49B
:101DA00024B0F582E5F03401F5832275F003A42414
:101DB000B2F582E5F03401F5832275F003A424B175
:101DC000F582E5F03401F5832275B08853B0DF4326
:101DD000B01022121727E0FEC4540FFD640F6001FB
:101DE0000D121727EE540F121726E0FEEDC454F023
:101DF000FCEE4CF0ED640F6004EDB50E0A121727EF
:101E0000E0540FF07F01227F002290028C740AF0D0
:101E1000740E1221B07412F0A304F074161221B0E3
:101E2000741BF0A304F0A3741FF0A304F0A37423A5
:101E3000F0A304F0A37428F0A304F0A37432F022FA
:101E4000AFA7E4F5A790029AE0F5A9E5A930E7FB72
:101E500075A70F90029BE0F5ECA3E0F5EDA3E0F58C
:101E6000EEA3E0F5EFA3E0F5F1A3E0F5F2A3E0F5D2
:101E7000968FA722E4FF900273E0FEEFC39E5027E7
:101E8000121393E4F012140AF583E4F0A3F0A3F024
:101E90001213E3F583E4F0A3F0A3F0121393E4121A
:101EA00013BBE4F00F80CF22E52975F012A42408BB
:101EB000F582E5F03400F5832275F012E529A424BB
:101EC0000DF582E5F03400F5832275F012E529A4C2
:101ED000240EF582E5F03400F583E022E4FFEFC341
:101EE000950B500C75F012EF1223B1E4F00F80EE59
:101EF000E50FC4F854F0C868FEE510C4540F48FF5D
:101F0000D394FFEE94007875400376FF22A6072253
:101F1000E47853F67853E6FFC3950B50251221D190
:101F20007854EEF6FC08EFF6FD7853E6FF121860E1
:101F30007853E6FF08E6FC08E6FD121649785306DA
:101F400080D2227D00C374089D9001F8F0C3740014
:101F50009DA3F0C374049DA3F0740B122422740A91
:101F6000122422C3740E9DA3F0E4A3F0C3740C9D4D
:101F7000A3F0A3F022E530D39401401DE4F531E550
:101F800031C39530501F1220F38531387BFF7A2002
:101F9000795D1204D9053180E61220F37BFF7A20A7
:101FA00079651204D922AFB5EF30E203754A01EF2B
:101FB00030E303754901EF30E103754801EF30E488
:101FC000047FFFDFFE75B520E54A6006E4F54A7F31
:101FD00001227F0022121727E0FE540FFD640F60DC
:101FE000010D121727EE54F0121726E04DF0ED64A4
:101FF0000F6004EDB50E0A121727E054F0F07F01D0
:10200000227F0022E4FFEFC3950B5025EF1222AC94
:10201000547FF075F012EFA4240CF582E5F0340043
:10202000F583E4F075F012EF1222AF54BFF00F8089
:10203000D5228F28121CE990024AEFF06403600752
:10204000E4FDAF28021A0175F012E528A4240EF56C
:1020500082E5F03400F583E0FEA3E0FF2225735F04
:10206000256264200025732000207C20002A48453A
:102070004144455220000A003120003020002575DF
:1020800020002562642000EDD3951A75F012EF4010
:1020900012A42402F582E5F03400F58375F002E520
:1020A0001A800412173AED1203F0E0FEA3E0FF22BB
:1020B000EFB40A07740D1220BB740A309811A89966
:1020C000B8130CC2983098FDA899C298B811F63090
:1020D00099FDC299F59922E54E2FFFE54D3E22EF7D
:1020E000C39550E4954F227BFF852F82852E83E098
:1020F000F53522852D35852E36852F3722EF902513
:102100007193FEEF121DABEEF0EF90255993FEEFA9
:10211000121D9CEEF0EF90258993FEEF121DBAEE92
:10212000F02275AC10E4F5AD00F5AD00F5AD00F5AD
:10213000AD00E54B4402FD7F041222C87F04122249
:102140006EEF20E1F722E4F52AF528F529E529C309
:10215000950B5013AF297E0012249FBF0105752AED
:10216000018004052980E6AF2A22E4FF121BA97F23
:1021700001121BA97F02121BA97F03121BA97F0456
:10218000121BA97F05121BA97F06021BA9E4785325
:10219000F67853E6FFC39402501575F003EFA424BC
:1021A000F2F582E5F0342212247A78530680E22296
:1021B000A3F0A304F0A32225E0248CF582E43402EA
:1021C000F583E02225E0248DF582E43402F583E0F6
:1021D00022AE07EE121D9CE0FF12254DEE121DAB44
:1021E000E0FF12251FEE121DBAE0FF122525122373
:1021F0005D22121E747B017A027974E4FF1224FEC0
:102200007B017A02796FE4FF1225057D04E4FF0269
:102210002537AFA7E4F5A7F5AA53BEC043BE40F5E6
:10222000FEF5FD8FA7121DC9E5B030E5FBE4F5B062
:10223000228E288F29122122AE28AF297C407D10C2
:10224000120402E47BE87A03F9F81202CB02196265
:10225000AFA7E4F5A7759810758DF3438E08858DAB
:102260008B53890F438920D28ED2998FA72278531E
:10227000A6A7E4F5A7E5AC20E7FBEF4480F5ACE5C5
:10228000AC20E7FB7853E6F5A7AFAD22E4F528755F
:10229000F003E528A424F8F582E5F0342212247A2C
:1022A0000528E528C3940240E622E52A75F012A429
:1022B000240BF582E5F03400F583E022C3785979E8
:1022C00061E79619E71896227853A6A7E4F5A7E5E3
:1022D000AC20E7FB8FAC8DADE5AC20E7FB7853E697
:1022E000F5A7220105FF24AB020AFF24450378FF6E
:1022F0002445FF0CC9FF0987FF1EDCFF17FA900277
:102300002FE5A7F075A70F43DC0843DC0443DC107E
:1023100043DC40E0F5A722122346122556120F682F
:1023200012255712228C1220041224600224B7783E
:1023300053A6A775A70F43DC0343DF3F43FF0143C9
:102340009640E6F5A722E4F528E528C3950B500C46
:10235000E4FDFCAF281219B3052880ED22121DC937
:10236000E5B030E5FB85EE3885ED39E4F5B0AE3803
:10237000AF3922AFA7E4F5A775B08875AA8A53BD17
:10238000F843BD01F5BE8FA722122250AFA775A753
:102390000F75B60143D9024395018FA722E4F528B2
:1023A000E528C3950B5009AF28120BE2052880F0F1
:1023B00022A4240BF582E5F03400F583227856E65A
:1023C000FFE4FD2275EF0643B280E5B220E6FB5341
:1023D000A90343B6402212240C1218BEAF19AE183E
:1023E0001222317F1C02242912240C1218BEAF15B0
:1023F000AE141222317F1C022429121F1012218DCB
:10240000121794120AEC12255802239D75B520E488
:10241000F54CF54AF549F547F54822E0FF7E007D89
:102420000122C39DA3F0A3F022EF54FC424BE54BE5
:102430004FFD7F040222C8EF121737ED1203F0EAB6
:10244000F0A3EBF022AD07ED121C78E0FEA3E0FF55
:102450000210ED121FA6EF60069002A47401F02294
:10246000E508786EB40103760222760122EF121796
:102470007BE075F010A4FFAEF022F583740193FAAF
:10248000740293F90203FC121A9775B58C121FA6F9
:10249000021E4012175630E6037F01227F002212EF
:1024A000175630E7037F01227F00228F29E4FD12B7
:1024B0002087AD290210ED78621203A6000000000B
:1024C000227BFF7A2079690204D97BFF7A20796D1B
:1024D0000204D97BFF7A2079760204D9E47B08FADA
:1024E000F9F80202CB121727E0C4540FFF2212178B
:1024F00027E054F0F022121727E0540FF0221214B4
:102500000A1213D8221213E31213D8227BFF7A2562
:102510007949221222FE021E0A1223C402232FEF3F
:102520005407F5BD22EF5407F5AA22121D620222BC
:1025300012121D26022373121393EDF02212103291
:102540000207D312252B022550010100008FAB2278
:102550000223E80223D62222221517161421261957
:102560001E1223241B1C1025221D1A1127201F18A0
:1025700013070707070707070707070707070707DF
:1025800007070707070707070707070707070707DB
:1025900007070707070707070707070707070707CB
:0125A0000733
:00000001FF
