:10004100E4F5A753D9BF1200AF120095120003D2F5
:03005100AF80FE7F
:0A00AF00AFA7E4F5A775A9048FA719
:0100B9002224
:0D009500AFA775A70F43D9207596408FA720
:0100A200223B
:10000300AFA7E4F5A75389F0438902438E04758CA7
:1000130038758A38F5A7F5D875D90475DA49F5F92D
:10002300F5FA75FB1075FC27E5FB2410F509E5FCD3
:0D0033003427F50843E610D2DED28C8FA7EB
:01004000229D
:03005B0002005E42
:09005E00C0E0C0D075D000C0055F
:10006700ADA775A70030D81AC2D8E509F5FBE50892
:10007700F5FCB285E5FB2410F509E5FC3427F50806
:07008700800353D8798DA717
:07008E00D005D0D0D0E03214
:030000000200A358
:0C00A300787FE4F6D8FD75810902004169
:00000001FF
