:10005E00C200E4F5A753D9BF1200E312003F12000D
:10006E0003D2AF7F0A7E00EF1F70011EEF4E70F7B6
:10007E00E4F5A730001CE5DA20E60543DA4080E31C
:10008E00E509150970021508E509450870D5C20085
:10009E0080D1AE08AF09E4FCFD7BFF7AFFF9F8C30F
:1000AE00120029700753DABFD20080B70509E5099F
:0600BE0070B1050880ADE1
:0A00E300AFA7E4F5A775A9048FA7E5
:0100ED0022F0
:10003F00AFA775A70F43B61F43D9204395107596E9
:03004F00408FA738
:01005200228B
:10000300ADA7E4F5A7F5D853D9F143D90875DACBF1
:10001300750880F509E509F5FBE508F5FC43E610ED
:0500230043D8408DA749
:0100280022B5
:03005B000200C4DC
:1000C400C0E075A70053D8FEE509F5FBE508F5FC8B
:0300D400D0E03247
:030000000200D724
:0C00D700787FE4F6D8FD75812002005E01
:10002900EB9FF5F0EA9E42F0E99D42F0EC6480C84E
:0600390064809845F022EE
:00000001FF
