:0800210002080000020A0000C1
:10010E00E4F5A753D9BF120132120121120003D216
:03011E00AF80FEB1
:0A013200AFA7E4F5A775A9348FA765
:01013C0022A0
:10012100AFA775A70F43D92043DC207596408FA751
:0101310022AB
:10000300AFA7E4F5A7F58E75C82A75CA3075CB304E
:0D00130075CC3075CD3043C804D2AD8FA739
:0100200022BD
:03002B000200BA16
:0B00BA00C0E0C0D075D000C006C00739
:1000C500E5C830E7190509E509AE08700205081409
:1000D50064C84E7006F508F509B29553C8BFE5C862
:1000E50030E71D050BE50BAE0A7002050A14FFBECD
:1000F500010BBF4D08750A00750B00B28553C87F0B
:09010500D007D006D0D0D0E032C2
:0300000002002ECD
:0C002E00787FE4F6D8FD75810B020075A8
:10003A0002010EE493A3F8E493A34003F68001F2CD
:10004A0008DFF48029E493A3F85407240CC8C333C7
:10005A00C4540F4420C8834004F456800146F6DF96
:10006A00E4800B0102040810204080900021E47E05
:10007A00019360BCA3FF543F30E509541FFEE4938B
:10008A00A360010ECF54C025E060A840B8E493A352
:10009A00FAE493A3F8E493A3C8C582C8CAC583CA7D
:1000AA00F0A3C8C582C8CAC583CADFE9DEE780BE35
:0100290000D6
:00000001FF
