:0400030002080000EF
:1000D800E4F5A753D9BF1200F91200EB1200C3D2FE
:0300E800AF80FEE8
:0A00F900AFA7E4F5A775A9348FA79F
:0101030022D9
:0D00EB00AFA775A70F43D9207596408FA7CA
:0100F80022E5
:1000C300E4F5A7538EF8438E02758902758ACC43F3
:0500D3008810D2A922F3
:03000B0002009A56
:09009A00C0E0C0D075D000C00622
:1000A300758ACC0509E509AE08700205081464C811
:0900B3004E7006F508F509B2854E
:0700BC00D006D0D0D0E032E5
:0300000002000EED
:0C000E00787FE4F6D8FD758109020055EA
:10001A000200D8E493A3F8E493A34003F68001F224
:10002A0008DFF48029E493A3F85407240CC8C333E7
:10003A00C4540F4420C8834004F456800146F6DFB6
:10004A00E4800B0102040810204080900003E47E43
:10005A00019360BCA3FF543F30E509541FFEE493AB
:10006A00A360010ECF54C025E060A840B8E493A372
:10007A00FAE493A3F8E493A3C8C582C8CAC583CA9D
:10008A00F0A3C8C582C8CAC583CADFE9DEE780BE55
:0100070000F8
:00000001FF
