:10000300C200E4F5A753D9BF1200801200601200AA
:1000130048E4F5A77FE87E03EF1F70011EEF4E70E3
:10002300F7300011E5DA20E60543DA4080E6D5FC37
:10003300E3C20080DFE5FCB4FF0753DABFD20080E0
:05004300D305FC80CF95
:0A008000AFA7E4F5A775A9348FA718
:01008A002253
:10006000AFA775A70F43B61F43D9204395107596C8
:03007000408FA717
:01007300226A
:10004800AFA7E4F5A7F5D853D9F143D90875DA4233
:0700580075FC80D2DE8FA7CA
:01005F00227E
:0300000002007487
:0C007400787FE4F6D8FD758120020003BF
:00000001FF
