:10002E00E4F5A753D9BF1200A1120087120074E4A1
:10003E00F5A7E5EF20E117E5EFB4080B7FB07E28BA
:10004E00120003D2AF80FE7FC27EA212000353D9EC
:10005E00BFE4F5F9F5FA75EBFF43D940D2AF308323
:06006E00FDE4F5EC80F852
:0A00A100AFA7E4F5A775A9348FA7F7
:0100AB002232
:0D008700AFA775A70F43D9207596408FA72E
:010094002249
:10007400AFA7E4F5A7D2DE53D9BF53D9F175EBFF8F
:020084008FA744
:010086002257
:10000300ADA7E4F5A7C2CA53C8FC43C802538ECFB9
:10001300C39FFFE49EF5CB8FCA74FFF5CDF5CCD219
:05002300ADD2CA8DA75B
:0100280022B5
:03002B000200AC24
:0500AC00C2CFB2853255
:0300000002009566
:0C009500787FE4F6D8FD75810702002E8C
:00000001FF
