:10005E00C200E4F5A753D9BF1200DB1200BB120099
:10006E0003D2AF7F647E00EF1F70011EEF4E70F75C
:10007E00E4F5A730001CE5DA20E60543DA4080E31C
:10008E00E509150970021508E509450870D5C20085
:10009E0080D1E509B4FF0CE508B4010753DABFD2ED
:0D00AE000080C00509E50970BA050880B69C
:0A00DB00AFA7E4F5A775A9348FA7BD
:0100E50022F8
:1000BB00AFA775A70F43B61F43D92043951075966D
:0300CB00408FA7BC
:0100CE00220F
:10000300ADA7E4F5A7F5D853D9F143D90875DA4B71
:1000130075DF81750801F509E509F5FBE508F5FCD0
:0A00230053DF7FD2DE43E6108DA705
:01002D0022B0
:03005B0002002E72
:09002E00C0E0C0D075D000C0058F
:10003700ADA775A70053D8FE43DF80E509F5FBE5BB
:0800470008F5FC53DF7F8DA7D3
:07004F00D005D0D0D0E03253
:030000000200CF2C
:0C00CF00787FE4F6D8FD75812002005E09
:00000001FF
